{
  "address": "0xe7f1725E7734CE288F8367e1Bb143E90bb3F0512",
  "abi": [
    {
      "inputs": [
        {
          "internalType": "string",
          "name": "name_",
          "type": "string"
        },
        {
          "internalType": "string",
          "name": "symbol_",
          "type": "string"
        }
      ],
      "stateMutability": "nonpayable",
      "type": "constructor"
    },
    {
      "anonymous": false,
      "inputs": [
        {
          "indexed": true,
          "internalType": "address",
          "name": "owner",
          "type": "address"
        },
        {
          "indexed": true,
          "internalType": "address",
          "name": "approved",
          "type": "address"
        },
        {
          "indexed": true,
          "internalType": "uint256",
          "name": "tokenId",
          "type": "uint256"
        }
      ],
      "name": "Approval",
      "type": "event"
    },
    {
      "anonymous": false,
      "inputs": [
        {
          "indexed": true,
          "internalType": "address",
          "name": "owner",
          "type": "address"
        },
        {
          "indexed": true,
          "internalType": "address",
          "name": "operator",
          "type": "address"
        },
        {
          "indexed": false,
          "internalType": "bool",
          "name": "approved",
          "type": "bool"
        }
      ],
      "name": "ApprovalForAll",
      "type": "event"
    },
    {
      "anonymous": false,
      "inputs": [
        {
          "indexed": true,
          "internalType": "address",
          "name": "previousOwner",
          "type": "address"
        },
        {
          "indexed": true,
          "internalType": "address",
          "name": "newOwner",
          "type": "address"
        }
      ],
      "name": "OwnershipTransferred",
      "type": "event"
    },
    {
      "anonymous": false,
      "inputs": [
        {
          "indexed": true,
          "internalType": "address",
          "name": "from",
          "type": "address"
        },
        {
          "indexed": true,
          "internalType": "address",
          "name": "to",
          "type": "address"
        },
        {
          "indexed": true,
          "internalType": "uint256",
          "name": "tokenId",
          "type": "uint256"
        }
      ],
      "name": "Transfer",
      "type": "event"
    },
    {
      "inputs": [
        {
          "internalType": "address",
          "name": "to",
          "type": "address"
        },
        {
          "internalType": "uint256",
          "name": "tokenId",
          "type": "uint256"
        }
      ],
      "name": "approve",
      "outputs": [],
      "stateMutability": "nonpayable",
      "type": "function"
    },
    {
      "inputs": [
        {
          "internalType": "address",
          "name": "owner",
          "type": "address"
        }
      ],
      "name": "balanceOf",
      "outputs": [
        {
          "internalType": "uint256",
          "name": "",
          "type": "uint256"
        }
      ],
      "stateMutability": "view",
      "type": "function"
    },
    {
      "inputs": [
        {
          "internalType": "uint256",
          "name": "tokenId",
          "type": "uint256"
        }
      ],
      "name": "getApproved",
      "outputs": [
        {
          "internalType": "address",
          "name": "",
          "type": "address"
        }
      ],
      "stateMutability": "view",
      "type": "function"
    },
    {
      "inputs": [
        {
          "internalType": "address",
          "name": "owner",
          "type": "address"
        },
        {
          "internalType": "address",
          "name": "operator",
          "type": "address"
        }
      ],
      "name": "isApprovedForAll",
      "outputs": [
        {
          "internalType": "bool",
          "name": "",
          "type": "bool"
        }
      ],
      "stateMutability": "view",
      "type": "function"
    },
    {
      "inputs": [],
      "name": "name",
      "outputs": [
        {
          "internalType": "string",
          "name": "",
          "type": "string"
        }
      ],
      "stateMutability": "view",
      "type": "function"
    },
    {
      "inputs": [],
      "name": "owner",
      "outputs": [
        {
          "internalType": "address",
          "name": "",
          "type": "address"
        }
      ],
      "stateMutability": "view",
      "type": "function"
    },
    {
      "inputs": [
        {
          "internalType": "uint256",
          "name": "tokenId",
          "type": "uint256"
        }
      ],
      "name": "ownerOf",
      "outputs": [
        {
          "internalType": "address",
          "name": "",
          "type": "address"
        }
      ],
      "stateMutability": "view",
      "type": "function"
    },
    {
      "inputs": [],
      "name": "renounceOwnership",
      "outputs": [],
      "stateMutability": "nonpayable",
      "type": "function"
    },
    {
      "inputs": [
        {
          "internalType": "address",
          "name": "to",
          "type": "address"
        },
        {
          "internalType": "uint256",
          "name": "tokenId",
          "type": "uint256"
        }
      ],
      "name": "safeMint",
      "outputs": [],
      "stateMutability": "nonpayable",
      "type": "function"
    },
    {
      "inputs": [
        {
          "internalType": "address",
          "name": "from",
          "type": "address"
        },
        {
          "internalType": "address",
          "name": "to",
          "type": "address"
        },
        {
          "internalType": "uint256",
          "name": "tokenId",
          "type": "uint256"
        }
      ],
      "name": "safeTransferFrom",
      "outputs": [],
      "stateMutability": "nonpayable",
      "type": "function"
    },
    {
      "inputs": [
        {
          "internalType": "address",
          "name": "from",
          "type": "address"
        },
        {
          "internalType": "address",
          "name": "to",
          "type": "address"
        },
        {
          "internalType": "uint256",
          "name": "tokenId",
          "type": "uint256"
        },
        {
          "internalType": "bytes",
          "name": "data",
          "type": "bytes"
        }
      ],
      "name": "safeTransferFrom",
      "outputs": [],
      "stateMutability": "nonpayable",
      "type": "function"
    },
    {
      "inputs": [
        {
          "internalType": "address",
          "name": "operator",
          "type": "address"
        },
        {
          "internalType": "bool",
          "name": "approved",
          "type": "bool"
        }
      ],
      "name": "setApprovalForAll",
      "outputs": [],
      "stateMutability": "nonpayable",
      "type": "function"
    },
    {
      "inputs": [
        {
          "internalType": "bytes4",
          "name": "interfaceId",
          "type": "bytes4"
        }
      ],
      "name": "supportsInterface",
      "outputs": [
        {
          "internalType": "bool",
          "name": "",
          "type": "bool"
        }
      ],
      "stateMutability": "view",
      "type": "function"
    },
    {
      "inputs": [],
      "name": "symbol",
      "outputs": [
        {
          "internalType": "string",
          "name": "",
          "type": "string"
        }
      ],
      "stateMutability": "view",
      "type": "function"
    },
    {
      "inputs": [
        {
          "internalType": "uint256",
          "name": "index",
          "type": "uint256"
        }
      ],
      "name": "tokenByIndex",
      "outputs": [
        {
          "internalType": "uint256",
          "name": "",
          "type": "uint256"
        }
      ],
      "stateMutability": "view",
      "type": "function"
    },
    {
      "inputs": [
        {
          "internalType": "address",
          "name": "owner",
          "type": "address"
        },
        {
          "internalType": "uint256",
          "name": "index",
          "type": "uint256"
        }
      ],
      "name": "tokenOfOwnerByIndex",
      "outputs": [
        {
          "internalType": "uint256",
          "name": "",
          "type": "uint256"
        }
      ],
      "stateMutability": "view",
      "type": "function"
    },
    {
      "inputs": [
        {
          "internalType": "uint256",
          "name": "tokenId",
          "type": "uint256"
        }
      ],
      "name": "tokenURI",
      "outputs": [
        {
          "internalType": "string",
          "name": "",
          "type": "string"
        }
      ],
      "stateMutability": "view",
      "type": "function"
    },
    {
      "inputs": [],
      "name": "totalSupply",
      "outputs": [
        {
          "internalType": "uint256",
          "name": "",
          "type": "uint256"
        }
      ],
      "stateMutability": "view",
      "type": "function"
    },
    {
      "inputs": [
        {
          "internalType": "address",
          "name": "from",
          "type": "address"
        },
        {
          "internalType": "address",
          "name": "to",
          "type": "address"
        },
        {
          "internalType": "uint256",
          "name": "tokenId",
          "type": "uint256"
        }
      ],
      "name": "transferFrom",
      "outputs": [],
      "stateMutability": "nonpayable",
      "type": "function"
    },
    {
      "inputs": [
        {
          "internalType": "address",
          "name": "newOwner",
          "type": "address"
        }
      ],
      "name": "transferOwnership",
      "outputs": [],
      "stateMutability": "nonpayable",
      "type": "function"
    }
  ],
  "transactionHash": "0xbc948296a6afd75c7c2a4e319c87a477792b319b112071fad27504ee47d24691",
  "args": [
    "VampireWeekend",
    "VW"
  ],
  "numDeployments": 1,
  "solcInputHash": "c16d2c2cec867d1510161dc1d6104cb5",
  "bytecode": "0x6080604052738c091cfea36b48f4a5ac022677043601308a521e600c60006101000a81548173ffffffffffffffffffffffffffffffffffffffff021916908373ffffffffffffffffffffffffffffffffffffffff1602179055503480156200006657600080fd5b5060405162004c8a38038062004c8a83398181016040528101906200008c919062000f95565b81818160009080519060200190620000a692919062000e1e565b508060019080519060200190620000bf92919062000e1e565b505050620000e2620000d66200014160201b60201c565b6200014960201b60201c565b60005b60038111620001385762000122600c60009054906101000a900473ffffffffffffffffffffffffffffffffffffffff16826200020f60201b60201c565b80806200012f906200146e565b915050620000e5565b50505062001725565b600033905090565b6000600a60009054906101000a900473ffffffffffffffffffffffffffffffffffffffff16905081600a60006101000a81548173ffffffffffffffffffffffffffffffffffffffff021916908373ffffffffffffffffffffffffffffffffffffffff1602179055508173ffffffffffffffffffffffffffffffffffffffff168173ffffffffffffffffffffffffffffffffffffffff167f8be0079c531659141344cd1fd0a4f28419497f9722a3daafe3b4186f6b6457e060405160405180910390a35050565b620002318282604051806020016040528060008152506200023560201b60201c565b5050565b620002478383620002a360201b60201c565b6200025c6000848484620004ea60201b60201c565b6200029e576040517f08c379a0000000000000000000000000000000000000000000000000000000008152600401620002959062001194565b60405180910390fd5b505050565b600073ffffffffffffffffffffffffffffffffffffffff168273ffffffffffffffffffffffffffffffffffffffff16141562000316576040517f08c379a00000000000000000000000000000000000000000000000000000000081526004016200030d90620011fa565b60405180910390fd5b6200032781620006a460201b60201c565b156200036a576040517f08c379a00000000000000000000000000000000000000000000000000000000081526004016200036190620011b6565b60405180910390fd5b62000380600083836001620006ed60201b60201c565b6200039181620006a460201b60201c565b15620003d4576040517f08c379a0000000000000000000000000000000000000000000000000000000008152600401620003cb90620011b6565b60405180910390fd5b6001600360008473ffffffffffffffffffffffffffffffffffffffff1673ffffffffffffffffffffffffffffffffffffffff16815260200190815260200160002060008282540192505081905550816002600083815260200190815260200160002060006101000a81548173ffffffffffffffffffffffffffffffffffffffff021916908373ffffffffffffffffffffffffffffffffffffffff160217905550808273ffffffffffffffffffffffffffffffffffffffff16600073ffffffffffffffffffffffffffffffffffffffff167fddf252ad1be2c89b69c2b068fc378daa952ba7f163c4a11628f55a4df523b3ef60405160405180910390a4620004e66000838360016200070c60201b60201c565b5050565b6000620005188473ffffffffffffffffffffffffffffffffffffffff166200071260201b62000ca31760201c565b1562000697578373ffffffffffffffffffffffffffffffffffffffff1663150b7a026200054a6200014160201b60201c565b8786866040518563ffffffff1660e01b81526004016200056e949392919062001140565b602060405180830381600087803b1580156200058957600080fd5b505af1925050508015620005bd57506040513d601f19601f82011682018060405250810190620005ba919062000f63565b60015b62000646573d8060008114620005f0576040519150601f19603f3d011682016040523d82523d6000602084013e620005f5565b606091505b506000815114156200063e576040517f08c379a0000000000000000000000000000000000000000000000000000000008152600401620006359062001194565b60405180910390fd5b805181602001fd5b63150b7a0260e01b7bffffffffffffffffffffffffffffffffffffffffffffffffffffffff1916817bffffffffffffffffffffffffffffffffffffffffffffffffffffffff1916149150506200069c565b600190505b949350505050565b60008073ffffffffffffffffffffffffffffffffffffffff16620006ce836200073560201b60201c565b73ffffffffffffffffffffffffffffffffffffffff1614159050919050565b62000706848484846200077260201b62000cc61760201c565b50505050565b50505050565b6000808273ffffffffffffffffffffffffffffffffffffffff163b119050919050565b60006002600083815260200190815260200160002060009054906101000a900473ffffffffffffffffffffffffffffffffffffffff169050919050565b6200078b848484846200090860201b62000e261760201c565b6001811115620007d2576040517f08c379a0000000000000000000000000000000000000000000000000000000008152600401620007c9906200121c565b60405180910390fd5b6000829050600073ffffffffffffffffffffffffffffffffffffffff168573ffffffffffffffffffffffffffffffffffffffff16141562000824576200081e8162000a3560201b60201c565b6200086c565b8373ffffffffffffffffffffffffffffffffffffffff168573ffffffffffffffffffffffffffffffffffffffff16146200086b576200086a858262000a7e60201b60201c565b5b5b600073ffffffffffffffffffffffffffffffffffffffff168473ffffffffffffffffffffffffffffffffffffffff161415620008b957620008b38162000bfb60201b60201c565b62000901565b8473ffffffffffffffffffffffffffffffffffffffff168473ffffffffffffffffffffffffffffffffffffffff16146200090057620008ff848262000cd760201b60201c565b5b5b5050505050565b600181111562000a2f57600073ffffffffffffffffffffffffffffffffffffffff168473ffffffffffffffffffffffffffffffffffffffff1614620009a05780600360008673ffffffffffffffffffffffffffffffffffffffff1673ffffffffffffffffffffffffffffffffffffffff168152602001908152602001600020600082825462000998919062001327565b925050819055505b600073ffffffffffffffffffffffffffffffffffffffff168373ffffffffffffffffffffffffffffffffffffffff161462000a2e5780600360008573ffffffffffffffffffffffffffffffffffffffff1673ffffffffffffffffffffffffffffffffffffffff168152602001908152602001600020600082825462000a269190620012ca565b925050819055505b5b50505050565b6008805490506009600083815260200190815260200160002081905550600881908060018154018082558091505060019003906000526020600020016000909190919091505550565b6000600162000a988462000d6360201b620008231760201c565b62000aa4919062001327565b905060006007600084815260200190815260200160002054905081811462000b8a576000600660008673ffffffffffffffffffffffffffffffffffffffff1673ffffffffffffffffffffffffffffffffffffffff168152602001908152602001600020600084815260200190815260200160002054905080600660008773ffffffffffffffffffffffffffffffffffffffff1673ffffffffffffffffffffffffffffffffffffffff168152602001908152602001600020600084815260200190815260200160002081905550816007600083815260200190815260200160002081905550505b6007600084815260200190815260200160002060009055600660008573ffffffffffffffffffffffffffffffffffffffff1673ffffffffffffffffffffffffffffffffffffffff16815260200190815260200160002060008381526020019081526020016000206000905550505050565b6000600160088054905062000c11919062001327565b905060006009600084815260200190815260200160002054905060006008838154811062000c445762000c4362001549565b5b90600052602060002001549050806008838154811062000c695762000c6862001549565b5b90600052602060002001819055508160096000838152602001908152602001600020819055506009600085815260200190815260200160002060009055600880548062000cbb5762000cba6200151a565b5b6001900381819060005260206000200160009055905550505050565b600062000cef8362000d6360201b620008231760201c565b905081600660008573ffffffffffffffffffffffffffffffffffffffff1673ffffffffffffffffffffffffffffffffffffffff168152602001908152602001600020600083815260200190815260200160002081905550806007600084815260200190815260200160002081905550505050565b60008073ffffffffffffffffffffffffffffffffffffffff168273ffffffffffffffffffffffffffffffffffffffff16141562000dd7576040517f08c379a000000000000000000000000000000000000000000000000000000000815260040162000dce90620011d8565b60405180910390fd5b600360008373ffffffffffffffffffffffffffffffffffffffff1673ffffffffffffffffffffffffffffffffffffffff168152602001908152602001600020549050919050565b82805462000e2c9062001402565b90600052602060002090601f01602090048101928262000e50576000855562000e9c565b82601f1062000e6b57805160ff191683800117855562000e9c565b8280016001018555821562000e9c579182015b8281111562000e9b57825182559160200191906001019062000e7e565b5b50905062000eab919062000eaf565b5090565b5b8082111562000eca57600081600090555060010162000eb0565b5090565b600062000ee562000edf8462001267565b6200123e565b90508281526020810184848401111562000f045762000f03620015ac565b5b62000f11848285620013cc565b509392505050565b60008151905062000f2a816200170b565b92915050565b600082601f83011262000f485762000f47620015a7565b5b815162000f5a84826020860162000ece565b91505092915050565b60006020828403121562000f7c5762000f7b620015b6565b5b600062000f8c8482850162000f19565b91505092915050565b6000806040838503121562000faf5762000fae620015b6565b5b600083015167ffffffffffffffff81111562000fd05762000fcf620015b1565b5b62000fde8582860162000f30565b925050602083015167ffffffffffffffff811115620010025762001001620015b1565b5b620010108582860162000f30565b9150509250929050565b620010258162001362565b82525050565b600062001038826200129d565b620010448185620012a8565b935062001056818560208601620013cc565b6200106181620015bb565b840191505092915050565b60006200107b603283620012b9565b91506200108882620015cc565b604082019050919050565b6000620010a2601c83620012b9565b9150620010af826200161b565b602082019050919050565b6000620010c9602983620012b9565b9150620010d68262001644565b604082019050919050565b6000620010f0602083620012b9565b9150620010fd8262001693565b602082019050919050565b600062001117603583620012b9565b91506200112482620016bc565b604082019050919050565b6200113a81620013c2565b82525050565b60006080820190506200115760008301876200101a565b6200116660208301866200101a565b6200117560408301856200112f565b81810360608301526200118981846200102b565b905095945050505050565b60006020820190508181036000830152620011af816200106c565b9050919050565b60006020820190508181036000830152620011d18162001093565b9050919050565b60006020820190508181036000830152620011f381620010ba565b9050919050565b600060208201905081810360008301526200121581620010e1565b9050919050565b60006020820190508181036000830152620012378162001108565b9050919050565b60006200124a6200125d565b905062001258828262001438565b919050565b6000604051905090565b600067ffffffffffffffff82111562001285576200128462001578565b5b6200129082620015bb565b9050602081019050919050565b600081519050919050565b600082825260208201905092915050565b600082825260208201905092915050565b6000620012d782620013c2565b9150620012e483620013c2565b9250827fffffffffffffffffffffffffffffffffffffffffffffffffffffffffffffffff038211156200131c576200131b620014bc565b5b828201905092915050565b60006200133482620013c2565b91506200134183620013c2565b925082821015620013575762001356620014bc565b5b828203905092915050565b60006200136f82620013a2565b9050919050565b60007fffffffff0000000000000000000000000000000000000000000000000000000082169050919050565b600073ffffffffffffffffffffffffffffffffffffffff82169050919050565b6000819050919050565b60005b83811015620013ec578082015181840152602081019050620013cf565b83811115620013fc576000848401525b50505050565b600060028204905060018216806200141b57607f821691505b60208210811415620014325762001431620014eb565b5b50919050565b6200144382620015bb565b810181811067ffffffffffffffff8211171562001465576200146462001578565b5b80604052505050565b60006200147b82620013c2565b91507fffffffffffffffffffffffffffffffffffffffffffffffffffffffffffffffff821415620014b157620014b0620014bc565b5b600182019050919050565b7f4e487b7100000000000000000000000000000000000000000000000000000000600052601160045260246000fd5b7f4e487b7100000000000000000000000000000000000000000000000000000000600052602260045260246000fd5b7f4e487b7100000000000000000000000000000000000000000000000000000000600052603160045260246000fd5b7f4e487b7100000000000000000000000000000000000000000000000000000000600052603260045260246000fd5b7f4e487b7100000000000000000000000000000000000000000000000000000000600052604160045260246000fd5b600080fd5b600080fd5b600080fd5b600080fd5b6000601f19601f8301169050919050565b7f4552433732313a207472616e7366657220746f206e6f6e20455243373231526560008201527f63656976657220696d706c656d656e7465720000000000000000000000000000602082015250565b7f4552433732313a20746f6b656e20616c7265616479206d696e74656400000000600082015250565b7f4552433732313a2061646472657373207a65726f206973206e6f74206120766160008201527f6c6964206f776e65720000000000000000000000000000000000000000000000602082015250565b7f4552433732313a206d696e7420746f20746865207a65726f2061646472657373600082015250565b7f455243373231456e756d657261626c653a20636f6e736563757469766520747260008201527f616e7366657273206e6f7420737570706f727465640000000000000000000000602082015250565b620017168162001376565b81146200172257600080fd5b50565b61355580620017356000396000f3fe608060405234801561001057600080fd5b506004361061012c5760003560e01c806370a08231116100ad578063a22cb46511610071578063a22cb46514610343578063b88d4fde1461035f578063c87b56dd1461037b578063e985e9c5146103ab578063f2fde38b146103db5761012c565b806370a08231146102b1578063715018a6146102e15780638da5cb5b146102eb57806395d89b4114610309578063a1448194146103275761012c565b806323b872dd116100f457806323b872dd146101e95780632f745c591461020557806342842e0e146102355780634f6ccce7146102515780636352211e146102815761012c565b806301ffc9a71461013157806306fdde0314610161578063081812fc1461017f578063095ea7b3146101af57806318160ddd146101cb575b600080fd5b61014b600480360381019061014691906125d3565b6103f7565b6040516101589190612a08565b60405180910390f35b610169610409565b6040516101769190612a23565b60405180910390f35b6101996004803603810190610194919061262d565b61049b565b6040516101a691906129a1565b60405180910390f35b6101c960048036038101906101c49190612593565b6104e1565b005b6101d36105f9565b6040516101e09190612c65565b60405180910390f35b61020360048036038101906101fe919061247d565b610606565b005b61021f600480360381019061021a9190612593565b610666565b60405161022c9190612c65565b60405180910390f35b61024f600480360381019061024a919061247d565b61070b565b005b61026b6004803603810190610266919061262d565b61072b565b6040516102789190612c65565b60405180910390f35b61029b6004803603810190610296919061262d565b61079c565b6040516102a891906129a1565b60405180910390f35b6102cb60048036038101906102c69190612410565b610823565b6040516102d89190612c65565b60405180910390f35b6102e96108db565b005b6102f36108ef565b60405161030091906129a1565b60405180910390f35b610311610919565b60405161031e9190612a23565b60405180910390f35b610341600480360381019061033c9190612593565b6109ab565b005b61035d60048036038101906103589190612553565b6109c1565b005b610379600480360381019061037491906124d0565b6109d7565b005b6103956004803603810190610390919061262d565b610a39565b6040516103a29190612a23565b60405180910390f35b6103c560048036038101906103c0919061243d565b610b8b565b6040516103d29190612a08565b60405180910390f35b6103f560048036038101906103f09190612410565b610c1f565b005b600061040282610f4c565b9050919050565b60606000805461041890612e59565b80601f016020809104026020016040519081016040528092919081815260200182805461044490612e59565b80156104915780601f1061046657610100808354040283529160200191610491565b820191906000526020600020905b81548152906001019060200180831161047457829003601f168201915b5050505050905090565b60006104a682610fc6565b6004600083815260200190815260200160002060009054906101000a900473ffffffffffffffffffffffffffffffffffffffff169050919050565b60006104ec8261079c565b90508073ffffffffffffffffffffffffffffffffffffffff168373ffffffffffffffffffffffffffffffffffffffff16141561055d576040517f08c379a000000000000000000000000000000000000000000000000000000000815260040161055490612be5565b60405180910390fd5b8073ffffffffffffffffffffffffffffffffffffffff1661057c611011565b73ffffffffffffffffffffffffffffffffffffffff1614806105ab57506105aa816105a5611011565b610b8b565b5b6105ea576040517f08c379a00000000000000000000000000000000000000000000000000000000081526004016105e190612c05565b60405180910390fd5b6105f48383611019565b505050565b6000600880549050905090565b610617610611611011565b826110d2565b610656576040517f08c379a000000000000000000000000000000000000000000000000000000000815260040161064d90612a45565b60405180910390fd5b610661838383611167565b505050565b600061067183610823565b82106106b2576040517f08c379a00000000000000000000000000000000000000000000000000000000081526004016106a990612a65565b60405180910390fd5b600660008473ffffffffffffffffffffffffffffffffffffffff1673ffffffffffffffffffffffffffffffffffffffff168152602001908152602001600020600083815260200190815260200160002054905092915050565b610726838383604051806020016040528060008152506109d7565b505050565b60006107356105f9565b8210610776576040517f08c379a000000000000000000000000000000000000000000000000000000000815260040161076d90612c25565b60405180910390fd5b6008828154811061078a57610789612f78565b5b90600052602060002001549050919050565b6000806107a883611461565b9050600073ffffffffffffffffffffffffffffffffffffffff168173ffffffffffffffffffffffffffffffffffffffff16141561081a576040517f08c379a000000000000000000000000000000000000000000000000000000000815260040161081190612bc5565b60405180910390fd5b80915050919050565b60008073ffffffffffffffffffffffffffffffffffffffff168273ffffffffffffffffffffffffffffffffffffffff161415610894576040517f08c379a000000000000000000000000000000000000000000000000000000000815260040161088b90612b45565b60405180910390fd5b600360008373ffffffffffffffffffffffffffffffffffffffff1673ffffffffffffffffffffffffffffffffffffffff168152602001908152602001600020549050919050565b6108e361149e565b6108ed600061151c565b565b6000600a60009054906101000a900473ffffffffffffffffffffffffffffffffffffffff16905090565b60606001805461092890612e59565b80601f016020809104026020016040519081016040528092919081815260200182805461095490612e59565b80156109a15780601f10610976576101008083540402835291602001916109a1565b820191906000526020600020905b81548152906001019060200180831161098457829003601f168201915b5050505050905090565b6109b361149e565b6109bd82826115e2565b5050565b6109d36109cc611011565b8383611600565b5050565b6109e86109e2611011565b836110d2565b610a27576040517f08c379a0000000000000000000000000000000000000000000000000000000008152600401610a1e90612a45565b60405180910390fd5b610a338484848461176d565b50505050565b6060610a44826117c9565b610a83576040517f08c379a0000000000000000000000000000000000000000000000000000000008152600401610a7a90612b85565b60405180910390fd5b6000600b60008481526020019081526020016000208054610aa390612e59565b80601f0160208091040260200160405190810160405280929190818152602001828054610acf90612e59565b8015610b1c5780601f10610af157610100808354040283529160200191610b1c565b820191906000526020600020905b815481529060010190602001808311610aff57829003601f168201915b505050505090506000610b2d61180a565b9050600081511415610b43578192505050610b86565b600082511115610b78578082604051602001610b6092919061297d565b60405160208183030381529060405292505050610b86565b610b818461182a565b925050505b919050565b6000600560008473ffffffffffffffffffffffffffffffffffffffff1673ffffffffffffffffffffffffffffffffffffffff16815260200190815260200160002060008373ffffffffffffffffffffffffffffffffffffffff1673ffffffffffffffffffffffffffffffffffffffff16815260200190815260200160002060009054906101000a900460ff16905092915050565b610c2761149e565b600073ffffffffffffffffffffffffffffffffffffffff168173ffffffffffffffffffffffffffffffffffffffff161415610c97576040517f08c379a0000000000000000000000000000000000000000000000000000000008152600401610c8e90612aa5565b60405180910390fd5b610ca08161151c565b50565b6000808273ffffffffffffffffffffffffffffffffffffffff163b119050919050565b610cd284848484610e26565b6001811115610d16576040517f08c379a0000000000000000000000000000000000000000000000000000000008152600401610d0d90612c45565b60405180910390fd5b6000829050600073ffffffffffffffffffffffffffffffffffffffff168573ffffffffffffffffffffffffffffffffffffffff161415610d5e57610d5981611892565b610d9d565b8373ffffffffffffffffffffffffffffffffffffffff168573ffffffffffffffffffffffffffffffffffffffff1614610d9c57610d9b85826118db565b5b5b600073ffffffffffffffffffffffffffffffffffffffff168473ffffffffffffffffffffffffffffffffffffffff161415610de057610ddb81611a48565b610e1f565b8473ffffffffffffffffffffffffffffffffffffffff168473ffffffffffffffffffffffffffffffffffffffff1614610e1e57610e1d8482611b19565b5b5b5050505050565b6001811115610f4657600073ffffffffffffffffffffffffffffffffffffffff168473ffffffffffffffffffffffffffffffffffffffff1614610eba5780600360008673ffffffffffffffffffffffffffffffffffffffff1673ffffffffffffffffffffffffffffffffffffffff1681526020019081526020016000206000828254610eb29190612d6f565b925050819055505b600073ffffffffffffffffffffffffffffffffffffffff168373ffffffffffffffffffffffffffffffffffffffff1614610f455780600360008573ffffffffffffffffffffffffffffffffffffffff1673ffffffffffffffffffffffffffffffffffffffff1681526020019081526020016000206000828254610f3d9190612d19565b925050819055505b5b50505050565b60007f780e9d63000000000000000000000000000000000000000000000000000000007bffffffffffffffffffffffffffffffffffffffffffffffffffffffff1916827bffffffffffffffffffffffffffffffffffffffffffffffffffffffff19161480610fbf5750610fbe82611b98565b5b9050919050565b610fcf816117c9565b61100e576040517f08c379a000000000000000000000000000000000000000000000000000000000815260040161100590612bc5565b60405180910390fd5b50565b600033905090565b816004600083815260200190815260200160002060006101000a81548173ffffffffffffffffffffffffffffffffffffffff021916908373ffffffffffffffffffffffffffffffffffffffff160217905550808273ffffffffffffffffffffffffffffffffffffffff1661108c8361079c565b73ffffffffffffffffffffffffffffffffffffffff167f8c5be1e5ebec7d5bd14f71427d1e84f3dd0314c0f7b2291e5b200ac8c7c3b92560405160405180910390a45050565b6000806110de8361079c565b90508073ffffffffffffffffffffffffffffffffffffffff168473ffffffffffffffffffffffffffffffffffffffff161480611120575061111f8185610b8b565b5b8061115e57508373ffffffffffffffffffffffffffffffffffffffff166111468461049b565b73ffffffffffffffffffffffffffffffffffffffff16145b91505092915050565b8273ffffffffffffffffffffffffffffffffffffffff166111878261079c565b73ffffffffffffffffffffffffffffffffffffffff16146111dd576040517f08c379a00000000000000000000000000000000000000000000000000000000081526004016111d490612ac5565b60405180910390fd5b600073ffffffffffffffffffffffffffffffffffffffff168273ffffffffffffffffffffffffffffffffffffffff16141561124d576040517f08c379a000000000000000000000000000000000000000000000000000000000815260040161124490612b05565b60405180910390fd5b61125a8383836001611c7a565b8273ffffffffffffffffffffffffffffffffffffffff1661127a8261079c565b73ffffffffffffffffffffffffffffffffffffffff16146112d0576040517f08c379a00000000000000000000000000000000000000000000000000000000081526004016112c790612ac5565b60405180910390fd5b6004600082815260200190815260200160002060006101000a81549073ffffffffffffffffffffffffffffffffffffffff02191690556001600360008573ffffffffffffffffffffffffffffffffffffffff1673ffffffffffffffffffffffffffffffffffffffff168152602001908152602001600020600082825403925050819055506001600360008473ffffffffffffffffffffffffffffffffffffffff1673ffffffffffffffffffffffffffffffffffffffff16815260200190815260200160002060008282540192505081905550816002600083815260200190815260200160002060006101000a81548173ffffffffffffffffffffffffffffffffffffffff021916908373ffffffffffffffffffffffffffffffffffffffff160217905550808273ffffffffffffffffffffffffffffffffffffffff168473ffffffffffffffffffffffffffffffffffffffff167fddf252ad1be2c89b69c2b068fc378daa952ba7f163c4a11628f55a4df523b3ef60405160405180910390a461145c8383836001611c8c565b505050565b60006002600083815260200190815260200160002060009054906101000a900473ffffffffffffffffffffffffffffffffffffffff169050919050565b6114a6611011565b73ffffffffffffffffffffffffffffffffffffffff166114c46108ef565b73ffffffffffffffffffffffffffffffffffffffff161461151a576040517f08c379a000000000000000000000000000000000000000000000000000000000815260040161151190612ba5565b60405180910390fd5b565b6000600a60009054906101000a900473ffffffffffffffffffffffffffffffffffffffff16905081600a60006101000a81548173ffffffffffffffffffffffffffffffffffffffff021916908373ffffffffffffffffffffffffffffffffffffffff1602179055508173ffffffffffffffffffffffffffffffffffffffff168173ffffffffffffffffffffffffffffffffffffffff167f8be0079c531659141344cd1fd0a4f28419497f9722a3daafe3b4186f6b6457e060405160405180910390a35050565b6115fc828260405180602001604052806000815250611c92565b5050565b8173ffffffffffffffffffffffffffffffffffffffff168373ffffffffffffffffffffffffffffffffffffffff16141561166f576040517f08c379a000000000000000000000000000000000000000000000000000000000815260040161166690612b25565b60405180910390fd5b80600560008573ffffffffffffffffffffffffffffffffffffffff1673ffffffffffffffffffffffffffffffffffffffff16815260200190815260200160002060008473ffffffffffffffffffffffffffffffffffffffff1673ffffffffffffffffffffffffffffffffffffffff16815260200190815260200160002060006101000a81548160ff0219169083151502179055508173ffffffffffffffffffffffffffffffffffffffff168373ffffffffffffffffffffffffffffffffffffffff167f17307eab39ab6107e8899845ad3d59bd9653f200f220920489ca2b5937696c31836040516117609190612a08565b60405180910390a3505050565b611778848484611167565b61178484848484611ced565b6117c3576040517f08c379a00000000000000000000000000000000000000000000000000000000081526004016117ba90612a85565b60405180910390fd5b50505050565b60008073ffffffffffffffffffffffffffffffffffffffff166117eb83611461565b73ffffffffffffffffffffffffffffffffffffffff1614159050919050565b60606040518060800160405280604781526020016134d960479139905090565b606061183582610fc6565b600061183f61180a565b9050600081511161185f576040518060200160405280600081525061188a565b8061186984611e84565b60405160200161187a92919061297d565b6040516020818303038152906040525b915050919050565b6008805490506009600083815260200190815260200160002081905550600881908060018154018082558091505060019003906000526020600020016000909190919091505550565b600060016118e884610823565b6118f29190612d6f565b90506000600760008481526020019081526020016000205490508181146119d7576000600660008673ffffffffffffffffffffffffffffffffffffffff1673ffffffffffffffffffffffffffffffffffffffff168152602001908152602001600020600084815260200190815260200160002054905080600660008773ffffffffffffffffffffffffffffffffffffffff1673ffffffffffffffffffffffffffffffffffffffff168152602001908152602001600020600084815260200190815260200160002081905550816007600083815260200190815260200160002081905550505b6007600084815260200190815260200160002060009055600660008573ffffffffffffffffffffffffffffffffffffffff1673ffffffffffffffffffffffffffffffffffffffff16815260200190815260200160002060008381526020019081526020016000206000905550505050565b60006001600880549050611a5c9190612d6f565b9050600060096000848152602001908152602001600020549050600060088381548110611a8c57611a8b612f78565b5b906000526020600020015490508060088381548110611aae57611aad612f78565b5b906000526020600020018190555081600960008381526020019081526020016000208190555060096000858152602001908152602001600020600090556008805480611afd57611afc612f49565b5b6001900381819060005260206000200160009055905550505050565b6000611b2483610823565b905081600660008573ffffffffffffffffffffffffffffffffffffffff1673ffffffffffffffffffffffffffffffffffffffff168152602001908152602001600020600083815260200190815260200160002081905550806007600084815260200190815260200160002081905550505050565b60007f80ac58cd000000000000000000000000000000000000000000000000000000007bffffffffffffffffffffffffffffffffffffffffffffffffffffffff1916827bffffffffffffffffffffffffffffffffffffffffffffffffffffffff19161480611c6357507f5b5e139f000000000000000000000000000000000000000000000000000000007bffffffffffffffffffffffffffffffffffffffffffffffffffffffff1916827bffffffffffffffffffffffffffffffffffffffffffffffffffffffff1916145b80611c735750611c7282611f5c565b5b9050919050565b611c8684848484610cc6565b50505050565b50505050565b611c9c8383611fc6565b611ca96000848484611ced565b611ce8576040517f08c379a0000000000000000000000000000000000000000000000000000000008152600401611cdf90612a85565b60405180910390fd5b505050565b6000611d0e8473ffffffffffffffffffffffffffffffffffffffff16610ca3565b15611e77578373ffffffffffffffffffffffffffffffffffffffff1663150b7a02611d37611011565b8786866040518563ffffffff1660e01b8152600401611d5994939291906129bc565b602060405180830381600087803b158015611d7357600080fd5b505af1925050508015611da457506040513d601f19601f82011682018060405250810190611da19190612600565b60015b611e27573d8060008114611dd4576040519150601f19603f3d011682016040523d82523d6000602084013e611dd9565b606091505b50600081511415611e1f576040517f08c379a0000000000000000000000000000000000000000000000000000000008152600401611e1690612a85565b60405180910390fd5b805181602001fd5b63150b7a0260e01b7bffffffffffffffffffffffffffffffffffffffffffffffffffffffff1916817bffffffffffffffffffffffffffffffffffffffffffffffffffffffff191614915050611e7c565b600190505b949350505050565b606060006001611e93846121e4565b01905060008167ffffffffffffffff811115611eb257611eb1612fa7565b5b6040519080825280601f01601f191660200182016040528015611ee45781602001600182028036833780820191505090505b509050600082602001820190505b600115611f51578080600190039150507f3031323334353637383961626364656600000000000000000000000000000000600a86061a8153600a8581611f3b57611f3a612eeb565b5b0494506000851415611f4c57611f51565b611ef2565b819350505050919050565b60007f01ffc9a7000000000000000000000000000000000000000000000000000000007bffffffffffffffffffffffffffffffffffffffffffffffffffffffff1916827bffffffffffffffffffffffffffffffffffffffffffffffffffffffff1916149050919050565b600073ffffffffffffffffffffffffffffffffffffffff168273ffffffffffffffffffffffffffffffffffffffff161415612036576040517f08c379a000000000000000000000000000000000000000000000000000000000815260040161202d90612b65565b60405180910390fd5b61203f816117c9565b1561207f576040517f08c379a000000000000000000000000000000000000000000000000000000000815260040161207690612ae5565b60405180910390fd5b61208d600083836001611c7a565b612096816117c9565b156120d6576040517f08c379a00000000000000000000000000000000000000000000000000000000081526004016120cd90612ae5565b60405180910390fd5b6001600360008473ffffffffffffffffffffffffffffffffffffffff1673ffffffffffffffffffffffffffffffffffffffff16815260200190815260200160002060008282540192505081905550816002600083815260200190815260200160002060006101000a81548173ffffffffffffffffffffffffffffffffffffffff021916908373ffffffffffffffffffffffffffffffffffffffff160217905550808273ffffffffffffffffffffffffffffffffffffffff16600073ffffffffffffffffffffffffffffffffffffffff167fddf252ad1be2c89b69c2b068fc378daa952ba7f163c4a11628f55a4df523b3ef60405160405180910390a46121e0600083836001611c8c565b5050565b600080600090507a184f03e93ff9f4daa797ed6e38ed64bf6a1f0100000000000000008310612242577a184f03e93ff9f4daa797ed6e38ed64bf6a1f010000000000000000838161223857612237612eeb565b5b0492506040810190505b6d04ee2d6d415b85acef8100000000831061227f576d04ee2d6d415b85acef8100000000838161227557612274612eeb565b5b0492506020810190505b662386f26fc1000083106122ae57662386f26fc1000083816122a4576122a3612eeb565b5b0492506010810190505b6305f5e10083106122d7576305f5e10083816122cd576122cc612eeb565b5b0492506008810190505b61271083106122fc5761271083816122f2576122f1612eeb565b5b0492506004810190505b6064831061231f576064838161231557612314612eeb565b5b0492506002810190505b600a831061232e576001810190505b80915050919050565b600061234a61234584612ca5565b612c80565b90508281526020810184848401111561236657612365612fdb565b5b612371848285612e17565b509392505050565b6000813590506123888161347c565b92915050565b60008135905061239d81613493565b92915050565b6000813590506123b2816134aa565b92915050565b6000815190506123c7816134aa565b92915050565b600082601f8301126123e2576123e1612fd6565b5b81356123f2848260208601612337565b91505092915050565b60008135905061240a816134c1565b92915050565b60006020828403121561242657612425612fe5565b5b600061243484828501612379565b91505092915050565b6000806040838503121561245457612453612fe5565b5b600061246285828601612379565b925050602061247385828601612379565b9150509250929050565b60008060006060848603121561249657612495612fe5565b5b60006124a486828701612379565b93505060206124b586828701612379565b92505060406124c6868287016123fb565b9150509250925092565b600080600080608085870312156124ea576124e9612fe5565b5b60006124f887828801612379565b945050602061250987828801612379565b935050604061251a878288016123fb565b925050606085013567ffffffffffffffff81111561253b5761253a612fe0565b5b612547878288016123cd565b91505092959194509250565b6000806040838503121561256a57612569612fe5565b5b600061257885828601612379565b92505060206125898582860161238e565b9150509250929050565b600080604083850312156125aa576125a9612fe5565b5b60006125b885828601612379565b92505060206125c9858286016123fb565b9150509250929050565b6000602082840312156125e9576125e8612fe5565b5b60006125f7848285016123a3565b91505092915050565b60006020828403121561261657612615612fe5565b5b6000612624848285016123b8565b91505092915050565b60006020828403121561264357612642612fe5565b5b6000612651848285016123fb565b91505092915050565b61266381612da3565b82525050565b61267281612db5565b82525050565b600061268382612cd6565b61268d8185612cec565b935061269d818560208601612e26565b6126a681612fea565b840191505092915050565b60006126bc82612ce1565b6126c68185612cfd565b93506126d6818560208601612e26565b6126df81612fea565b840191505092915050565b60006126f582612ce1565b6126ff8185612d0e565b935061270f818560208601612e26565b80840191505092915050565b6000612728602d83612cfd565b915061273382612ffb565b604082019050919050565b600061274b602b83612cfd565b91506127568261304a565b604082019050919050565b600061276e603283612cfd565b915061277982613099565b604082019050919050565b6000612791602683612cfd565b915061279c826130e8565b604082019050919050565b60006127b4602583612cfd565b91506127bf82613137565b604082019050919050565b60006127d7601c83612cfd565b91506127e282613186565b602082019050919050565b60006127fa602483612cfd565b9150612805826131af565b604082019050919050565b600061281d601983612cfd565b9150612828826131fe565b602082019050919050565b6000612840602983612cfd565b915061284b82613227565b604082019050919050565b6000612863602083612cfd565b915061286e82613276565b602082019050919050565b6000612886603183612cfd565b91506128918261329f565b604082019050919050565b60006128a9602083612cfd565b91506128b4826132ee565b602082019050919050565b60006128cc601883612cfd565b91506128d782613317565b602082019050919050565b60006128ef602183612cfd565b91506128fa82613340565b604082019050919050565b6000612912603d83612cfd565b915061291d8261338f565b604082019050919050565b6000612935602c83612cfd565b9150612940826133de565b604082019050919050565b6000612958603583612cfd565b91506129638261342d565b604082019050919050565b61297781612e0d565b82525050565b600061298982856126ea565b915061299582846126ea565b91508190509392505050565b60006020820190506129b6600083018461265a565b92915050565b60006080820190506129d1600083018761265a565b6129de602083018661265a565b6129eb604083018561296e565b81810360608301526129fd8184612678565b905095945050505050565b6000602082019050612a1d6000830184612669565b92915050565b60006020820190508181036000830152612a3d81846126b1565b905092915050565b60006020820190508181036000830152612a5e8161271b565b9050919050565b60006020820190508181036000830152612a7e8161273e565b9050919050565b60006020820190508181036000830152612a9e81612761565b9050919050565b60006020820190508181036000830152612abe81612784565b9050919050565b60006020820190508181036000830152612ade816127a7565b9050919050565b60006020820190508181036000830152612afe816127ca565b9050919050565b60006020820190508181036000830152612b1e816127ed565b9050919050565b60006020820190508181036000830152612b3e81612810565b9050919050565b60006020820190508181036000830152612b5e81612833565b9050919050565b60006020820190508181036000830152612b7e81612856565b9050919050565b60006020820190508181036000830152612b9e81612879565b9050919050565b60006020820190508181036000830152612bbe8161289c565b9050919050565b60006020820190508181036000830152612bde816128bf565b9050919050565b60006020820190508181036000830152612bfe816128e2565b9050919050565b60006020820190508181036000830152612c1e81612905565b9050919050565b60006020820190508181036000830152612c3e81612928565b9050919050565b60006020820190508181036000830152612c5e8161294b565b9050919050565b6000602082019050612c7a600083018461296e565b92915050565b6000612c8a612c9b565b9050612c968282612e8b565b919050565b6000604051905090565b600067ffffffffffffffff821115612cc057612cbf612fa7565b5b612cc982612fea565b9050602081019050919050565b600081519050919050565b600081519050919050565b600082825260208201905092915050565b600082825260208201905092915050565b600081905092915050565b6000612d2482612e0d565b9150612d2f83612e0d565b9250827fffffffffffffffffffffffffffffffffffffffffffffffffffffffffffffffff03821115612d6457612d63612ebc565b5b828201905092915050565b6000612d7a82612e0d565b9150612d8583612e0d565b925082821015612d9857612d97612ebc565b5b828203905092915050565b6000612dae82612ded565b9050919050565b60008115159050919050565b60007fffffffff0000000000000000000000000000000000000000000000000000000082169050919050565b600073ffffffffffffffffffffffffffffffffffffffff82169050919050565b6000819050919050565b82818337600083830152505050565b60005b83811015612e44578082015181840152602081019050612e29565b83811115612e53576000848401525b50505050565b60006002820490506001821680612e7157607f821691505b60208210811415612e8557612e84612f1a565b5b50919050565b612e9482612fea565b810181811067ffffffffffffffff82111715612eb357612eb2612fa7565b5b80604052505050565b7f4e487b7100000000000000000000000000000000000000000000000000000000600052601160045260246000fd5b7f4e487b7100000000000000000000000000000000000000000000000000000000600052601260045260246000fd5b7f4e487b7100000000000000000000000000000000000000000000000000000000600052602260045260246000fd5b7f4e487b7100000000000000000000000000000000000000000000000000000000600052603160045260246000fd5b7f4e487b7100000000000000000000000000000000000000000000000000000000600052603260045260246000fd5b7f4e487b7100000000000000000000000000000000000000000000000000000000600052604160045260246000fd5b600080fd5b600080fd5b600080fd5b600080fd5b6000601f19601f8301169050919050565b7f4552433732313a2063616c6c6572206973206e6f7420746f6b656e206f776e6560008201527f72206f7220617070726f76656400000000000000000000000000000000000000602082015250565b7f455243373231456e756d657261626c653a206f776e657220696e646578206f7560008201527f74206f6620626f756e6473000000000000000000000000000000000000000000602082015250565b7f4552433732313a207472616e7366657220746f206e6f6e20455243373231526560008201527f63656976657220696d706c656d656e7465720000000000000000000000000000602082015250565b7f4f776e61626c653a206e6577206f776e657220697320746865207a65726f206160008201527f6464726573730000000000000000000000000000000000000000000000000000602082015250565b7f4552433732313a207472616e736665722066726f6d20696e636f72726563742060008201527f6f776e6572000000000000000000000000000000000000000000000000000000602082015250565b7f4552433732313a20746f6b656e20616c7265616479206d696e74656400000000600082015250565b7f4552433732313a207472616e7366657220746f20746865207a65726f2061646460008201527f7265737300000000000000000000000000000000000000000000000000000000602082015250565b7f4552433732313a20617070726f766520746f2063616c6c657200000000000000600082015250565b7f4552433732313a2061646472657373207a65726f206973206e6f74206120766160008201527f6c6964206f776e65720000000000000000000000000000000000000000000000602082015250565b7f4552433732313a206d696e7420746f20746865207a65726f2061646472657373600082015250565b7f45524337323155524953746f726167653a2055524920717565727920666f722060008201527f6e6f6e6578697374656e7420746f6b656e000000000000000000000000000000602082015250565b7f4f776e61626c653a2063616c6c6572206973206e6f7420746865206f776e6572600082015250565b7f4552433732313a20696e76616c696420746f6b656e2049440000000000000000600082015250565b7f4552433732313a20617070726f76616c20746f2063757272656e74206f776e6560008201527f7200000000000000000000000000000000000000000000000000000000000000602082015250565b7f4552433732313a20617070726f76652063616c6c6572206973206e6f7420746f60008201527f6b656e206f776e6572206f7220617070726f76656420666f7220616c6c000000602082015250565b7f455243373231456e756d657261626c653a20676c6f62616c20696e646578206f60008201527f7574206f6620626f756e64730000000000000000000000000000000000000000602082015250565b7f455243373231456e756d657261626c653a20636f6e736563757469766520747260008201527f616e7366657273206e6f7420737570706f727465640000000000000000000000602082015250565b61348581612da3565b811461349057600080fd5b50565b61349c81612db5565b81146134a757600080fd5b50565b6134b381612dc1565b81146134be57600080fd5b50565b6134ca81612e0d565b81146134d557600080fd5b5056fe697066733a2f2f62616679626569656832786f78347a6937656f63326661626a7334797761736a6c65363273716b74376f6678376b763273667069366e64693364342f6e66742fa2646970667358221220d131b46c60ffda3a27b5b1207f12a2468869a11b64ef3bb662f778d072a8a78b64736f6c63430008070033",
  "devdoc": {
    "kind": "dev",
    "methods": {
      "approve(address,uint256)": {
        "details": "See {IERC721-approve}."
      },
      "balanceOf(address)": {
        "details": "See {IERC721-balanceOf}."
      },
      "getApproved(uint256)": {
        "details": "See {IERC721-getApproved}."
      },
      "isApprovedForAll(address,address)": {
        "details": "See {IERC721-isApprovedForAll}."
      },
      "name()": {
        "details": "See {IERC721Metadata-name}."
      },
      "owner()": {
        "details": "Returns the address of the current owner."
      },
      "ownerOf(uint256)": {
        "details": "See {IERC721-ownerOf}."
      },
      "renounceOwnership()": {
        "details": "Leaves the contract without owner. It will not be possible to call `onlyOwner` functions anymore. Can only be called by the current owner. NOTE: Renouncing ownership will leave the contract without an owner, thereby removing any functionality that is only available to the owner."
      },
      "safeMint(address,uint256)": {
        "details": "See {ERC721-safeMint}."
      },
      "safeTransferFrom(address,address,uint256)": {
        "details": "See {IERC721-safeTransferFrom}."
      },
      "safeTransferFrom(address,address,uint256,bytes)": {
        "details": "See {IERC721-safeTransferFrom}."
      },
      "setApprovalForAll(address,bool)": {
        "details": "See {IERC721-setApprovalForAll}."
      },
      "symbol()": {
        "details": "See {IERC721Metadata-symbol}."
      },
      "tokenByIndex(uint256)": {
        "details": "See {IERC721Enumerable-tokenByIndex}."
      },
      "tokenOfOwnerByIndex(address,uint256)": {
        "details": "See {IERC721Enumerable-tokenOfOwnerByIndex}."
      },
      "tokenURI(uint256)": {
        "details": "See {IERC721Metadata-tokenURI}."
      },
      "totalSupply()": {
        "details": "See {IERC721Enumerable-totalSupply}."
      },
      "transferFrom(address,address,uint256)": {
        "details": "See {IERC721-transferFrom}."
      },
      "transferOwnership(address)": {
        "details": "Transfers ownership of the contract to a new account (`newOwner`). Can only be called by the current owner."
      }
    },
    "version": 1
  },
  "userdoc": {
    "kind": "user",
    "methods": {},
    "version": 1
  },
  "storageLayout": {
    "storage": [
      {
        "astId": 138,
        "contract": "contracts/VampireWeekendTickets.sol:VampireWeekendTickets",
        "label": "_name",
        "offset": 0,
        "slot": "0",
        "type": "t_string_storage"
      },
      {
        "astId": 140,
        "contract": "contracts/VampireWeekendTickets.sol:VampireWeekendTickets",
        "label": "_symbol",
        "offset": 0,
        "slot": "1",
        "type": "t_string_storage"
      },
      {
        "astId": 144,
        "contract": "contracts/VampireWeekendTickets.sol:VampireWeekendTickets",
        "label": "_owners",
        "offset": 0,
        "slot": "2",
        "type": "t_mapping(t_uint256,t_address)"
      },
      {
        "astId": 148,
        "contract": "contracts/VampireWeekendTickets.sol:VampireWeekendTickets",
        "label": "_balances",
        "offset": 0,
        "slot": "3",
        "type": "t_mapping(t_address,t_uint256)"
      },
      {
        "astId": 152,
        "contract": "contracts/VampireWeekendTickets.sol:VampireWeekendTickets",
        "label": "_tokenApprovals",
        "offset": 0,
        "slot": "4",
        "type": "t_mapping(t_uint256,t_address)"
      },
      {
        "astId": 158,
        "contract": "contracts/VampireWeekendTickets.sol:VampireWeekendTickets",
        "label": "_operatorApprovals",
        "offset": 0,
        "slot": "5",
        "type": "t_mapping(t_address,t_mapping(t_address,t_bool))"
      },
      {
        "astId": 1206,
        "contract": "contracts/VampireWeekendTickets.sol:VampireWeekendTickets",
        "label": "_ownedTokens",
        "offset": 0,
        "slot": "6",
        "type": "t_mapping(t_address,t_mapping(t_uint256,t_uint256))"
      },
      {
        "astId": 1210,
        "contract": "contracts/VampireWeekendTickets.sol:VampireWeekendTickets",
        "label": "_ownedTokensIndex",
        "offset": 0,
        "slot": "7",
        "type": "t_mapping(t_uint256,t_uint256)"
      },
      {
        "astId": 1213,
        "contract": "contracts/VampireWeekendTickets.sol:VampireWeekendTickets",
        "label": "_allTokens",
        "offset": 0,
        "slot": "8",
        "type": "t_array(t_uint256)dyn_storage"
      },
      {
        "astId": 1217,
        "contract": "contracts/VampireWeekendTickets.sol:VampireWeekendTickets",
        "label": "_allTokensIndex",
        "offset": 0,
        "slot": "9",
        "type": "t_mapping(t_uint256,t_uint256)"
      },
      {
        "astId": 7,
        "contract": "contracts/VampireWeekendTickets.sol:VampireWeekendTickets",
        "label": "_owner",
        "offset": 0,
        "slot": "10",
        "type": "t_address"
      },
      {
        "astId": 3046,
        "contract": "contracts/VampireWeekendTickets.sol:VampireWeekendTickets",
        "label": "_tokenURIs",
        "offset": 0,
        "slot": "11",
        "type": "t_mapping(t_uint256,t_string_storage)"
      },
      {
        "astId": 3049,
        "contract": "contracts/VampireWeekendTickets.sol:VampireWeekendTickets",
        "label": "MINT_DESTINATION",
        "offset": 0,
        "slot": "12",
        "type": "t_address"
      }
    ],
    "types": {
      "t_address": {
        "encoding": "inplace",
        "label": "address",
        "numberOfBytes": "20"
      },
      "t_array(t_uint256)dyn_storage": {
        "base": "t_uint256",
        "encoding": "dynamic_array",
        "label": "uint256[]",
        "numberOfBytes": "32"
      },
      "t_bool": {
        "encoding": "inplace",
        "label": "bool",
        "numberOfBytes": "1"
      },
      "t_mapping(t_address,t_bool)": {
        "encoding": "mapping",
        "key": "t_address",
        "label": "mapping(address => bool)",
        "numberOfBytes": "32",
        "value": "t_bool"
      },
      "t_mapping(t_address,t_mapping(t_address,t_bool))": {
        "encoding": "mapping",
        "key": "t_address",
        "label": "mapping(address => mapping(address => bool))",
        "numberOfBytes": "32",
        "value": "t_mapping(t_address,t_bool)"
      },
      "t_mapping(t_address,t_mapping(t_uint256,t_uint256))": {
        "encoding": "mapping",
        "key": "t_address",
        "label": "mapping(address => mapping(uint256 => uint256))",
        "numberOfBytes": "32",
        "value": "t_mapping(t_uint256,t_uint256)"
      },
      "t_mapping(t_address,t_uint256)": {
        "encoding": "mapping",
        "key": "t_address",
        "label": "mapping(address => uint256)",
        "numberOfBytes": "32",
        "value": "t_uint256"
      },
      "t_mapping(t_uint256,t_address)": {
        "encoding": "mapping",
        "key": "t_uint256",
        "label": "mapping(uint256 => address)",
        "numberOfBytes": "32",
        "value": "t_address"
      },
      "t_mapping(t_uint256,t_string_storage)": {
        "encoding": "mapping",
        "key": "t_uint256",
        "label": "mapping(uint256 => string)",
        "numberOfBytes": "32",
        "value": "t_string_storage"
      },
      "t_mapping(t_uint256,t_uint256)": {
        "encoding": "mapping",
        "key": "t_uint256",
        "label": "mapping(uint256 => uint256)",
        "numberOfBytes": "32",
        "value": "t_uint256"
      },
      "t_string_storage": {
        "encoding": "bytes",
        "label": "string",
        "numberOfBytes": "32"
      },
      "t_uint256": {
        "encoding": "inplace",
        "label": "uint256",
        "numberOfBytes": "32"
      }
    }
  }
}